{
  "_format": "hh-sol-artifact-1",
  "contractName": "ReverseAuctionFactory",
  "sourceName": "contracts/ReverseAuctionFactory.sol",
  "abi": [
    {
      "anonymous": false,
      "inputs": [
        {
          "indexed": true,
          "internalType": "address",
          "name": "auctionAddress",
          "type": "address"
        },
        {
          "indexed": true,
          "internalType": "address",
          "name": "creator",
          "type": "address"
        },
        {
          "indexed": false,
          "internalType": "string",
          "name": "name",
          "type": "string"
        },
        {
          "indexed": false,
          "internalType": "uint256",
          "name": "maxBid",
          "type": "uint256"
        },
        {
          "indexed": false,
          "internalType": "uint256",
          "name": "numberOfWinners",
          "type": "uint256"
        }
      ],
      "name": "AuctionCreated",
      "type": "event"
    },
    {
      "inputs": [
        {
          "internalType": "uint256",
          "name": "",
          "type": "uint256"
        }
      ],
      "name": "allAuctions",
      "outputs": [
        {
          "internalType": "address",
          "name": "",
          "type": "address"
        }
      ],
      "stateMutability": "view",
      "type": "function"
    },
    {
      "inputs": [
        {
          "internalType": "string",
          "name": "_name",
          "type": "string"
        },
        {
          "internalType": "uint256",
          "name": "_maxBid",
          "type": "uint256"
        },
        {
          "internalType": "uint256",
          "name": "_numberOfWinners",
          "type": "uint256"
        },
        {
          "internalType": "uint256",
          "name": "_duration",
          "type": "uint256"
        }
      ],
      "name": "createReverseAuction",
      "outputs": [
        {
          "internalType": "address",
          "name": "",
          "type": "address"
        }
      ],
      "stateMutability": "payable",
      "type": "function"
    },
    {
      "inputs": [
        {
          "internalType": "address",
          "name": "",
          "type": "address"
        },
        {
          "internalType": "uint256",
          "name": "",
          "type": "uint256"
        }
      ],
      "name": "creatorAuctions",
      "outputs": [
        {
          "internalType": "address",
          "name": "",
          "type": "address"
        }
      ],
      "stateMutability": "view",
      "type": "function"
    },
    {
      "inputs": [],
      "name": "getAllAuctions",
      "outputs": [
        {
          "internalType": "address[]",
          "name": "",
          "type": "address[]"
        }
      ],
      "stateMutability": "view",
      "type": "function"
    },
    {
      "inputs": [
        {
          "internalType": "address",
          "name": "_creator",
          "type": "address"
        }
      ],
      "name": "getCreatorAuctions",
      "outputs": [
        {
          "internalType": "address[]",
          "name": "",
          "type": "address[]"
        }
      ],
      "stateMutability": "view",
      "type": "function"
    }
  ],
  "bytecode": "0x608060405234801561001057600080fd5b506137be806100206000396000f3fe608060405260043610620000505760003560e01c8063165c58811462000055578063794a61331462000099578063ab4773f414620000dd578063af7484381462000113578063cbd2bdfd1462000157575b600080fd5b3480156200006257600080fd5b506200008160048036038101906200007b9190620007b6565b62000187565b6040516200009091906200082d565b60405180910390f35b348015620000a657600080fd5b50620000c56004803603810190620000bf91906200087b565b620001c7565b604051620000d491906200082d565b60405180910390f35b620000fb6004803603810190620000f5919062000a24565b62000216565b6040516200010a91906200082d565b60405180910390f35b3480156200012057600080fd5b506200013f600480360381019062000139919062000ab5565b620005fb565b6040516200014e919062000bb5565b60405180910390f35b3480156200016457600080fd5b506200016f620006c9565b6040516200017e919062000bb5565b60405180910390f35b600181815481106200019857600080fd5b906000526020600020016000915054906101000a900473ffffffffffffffffffffffffffffffffffffffff1681565b60006020528160005260406000208181548110620001e457600080fd5b906000526020600020016000915091509054906101000a900473ffffffffffffffffffffffffffffffffffffffff1681565b6000808551116200025e576040517f08c379a0000000000000000000000000000000000000000000000000000000008152600401620002559062000c3a565b60405180910390fd5b60008311620002a4576040517f08c379a00000000000000000000000000000000000000000000000000000000081526004016200029b9062000cd2565b60405180910390fd5b60008411620002ea576040517f08c379a0000000000000000000000000000000000000000000000000000000008152600401620002e19062000d6a565b60405180910390fd5b6000821162000330576040517f08c379a0000000000000000000000000000000000000000000000000000000008152600401620003279062000e02565b60405180910390fd5b6000838562000340919062000e53565b90508034101562000388576040517f08c379a00000000000000000000000000000000000000000000000000000000081526004016200037f9062000eee565b60405180910390fd5b600033878787876040516200039d9062000759565b620003ad95949392919062000f99565b604051809103906000f080158015620003ca573d6000803e3d6000fd5b50905060008173ffffffffffffffffffffffffffffffffffffffff1683604051620003f59062001032565b60006040518083038185875af1925050503d806000811462000434576040519150601f19603f3d011682016040523d82523d6000602084013e62000439565b606091505b505090508062000480576040517f08c379a0000000000000000000000000000000000000000000000000000000008152600401620004779062001099565b60405180910390fd5b6000803373ffffffffffffffffffffffffffffffffffffffff1673ffffffffffffffffffffffffffffffffffffffff168152602001908152602001600020829080600181540180825580915050600190039060005260206000200160009091909190916101000a81548173ffffffffffffffffffffffffffffffffffffffff021916908373ffffffffffffffffffffffffffffffffffffffff1602179055506001829080600181540180825580915050600190039060005260206000200160009091909190916101000a81548173ffffffffffffffffffffffffffffffffffffffff021916908373ffffffffffffffffffffffffffffffffffffffff1602179055503373ffffffffffffffffffffffffffffffffffffffff168273ffffffffffffffffffffffffffffffffffffffff167fc28c54a05cdc67e5ace793a438de07cf4ce0693e8a0dd871cddef4fd6782e8368a8a8a604051620005e593929190620010bb565b60405180910390a3819350505050949350505050565b60606000808373ffffffffffffffffffffffffffffffffffffffff1673ffffffffffffffffffffffffffffffffffffffff168152602001908152602001600020805480602002602001604051908101604052809291908181526020018280548015620006bd57602002820191906000526020600020905b8160009054906101000a900473ffffffffffffffffffffffffffffffffffffffff1673ffffffffffffffffffffffffffffffffffffffff168152602001906001019080831162000672575b50505050509050919050565b606060018054806020026020016040519081016040528092919081815260200182805480156200074f57602002820191906000526020600020905b8160009054906101000a900473ffffffffffffffffffffffffffffffffffffffff1673ffffffffffffffffffffffffffffffffffffffff168152602001906001019080831162000704575b5050505050905090565b612689806200110083390190565b6000604051905090565b600080fd5b600080fd5b6000819050919050565b62000790816200077b565b81146200079c57600080fd5b50565b600081359050620007b08162000785565b92915050565b600060208284031215620007cf57620007ce62000771565b5b6000620007df848285016200079f565b91505092915050565b600073ffffffffffffffffffffffffffffffffffffffff82169050919050565b60006200081582620007e8565b9050919050565b620008278162000808565b82525050565b60006020820190506200084460008301846200081c565b92915050565b620008558162000808565b81146200086157600080fd5b50565b60008135905062000875816200084a565b92915050565b6000806040838503121562000895576200089462000771565b5b6000620008a58582860162000864565b9250506020620008b8858286016200079f565b9150509250929050565b600080fd5b600080fd5b6000601f19601f8301169050919050565b7f4e487b7100000000000000000000000000000000000000000000000000000000600052604160045260246000fd5b6200091782620008cc565b810181811067ffffffffffffffff82111715620009395762000938620008dd565b5b80604052505050565b60006200094e62000767565b90506200095c82826200090c565b919050565b600067ffffffffffffffff8211156200097f576200097e620008dd565b5b6200098a82620008cc565b9050602081019050919050565b82818337600083830152505050565b6000620009bd620009b78462000961565b62000942565b905082815260208101848484011115620009dc57620009db620008c7565b5b620009e984828562000997565b509392505050565b600082601f83011262000a095762000a08620008c2565b5b813562000a1b848260208601620009a6565b91505092915050565b6000806000806080858703121562000a415762000a4062000771565b5b600085013567ffffffffffffffff81111562000a625762000a6162000776565b5b62000a7087828801620009f1565b945050602062000a83878288016200079f565b935050604062000a96878288016200079f565b925050606062000aa9878288016200079f565b91505092959194509250565b60006020828403121562000ace5762000acd62000771565b5b600062000ade8482850162000864565b91505092915050565b600081519050919050565b600082825260208201905092915050565b6000819050602082019050919050565b62000b1e8162000808565b82525050565b600062000b32838362000b13565b60208301905092915050565b6000602082019050919050565b600062000b588262000ae7565b62000b64818562000af2565b935062000b718362000b03565b8060005b8381101562000ba857815162000b8c888262000b24565b975062000b998362000b3e565b92505060018101905062000b75565b5085935050505092915050565b6000602082019050818103600083015262000bd1818462000b4b565b905092915050565b600082825260208201905092915050565b7f41756374696f6e206e616d652063616e6e6f7420626520656d70747900000000600082015250565b600062000c22601c8362000bd9565b915062000c2f8262000bea565b602082019050919050565b6000602082019050818103600083015262000c558162000c13565b9050919050565b7f4e756d626572206f662077696e6e657273206d7573742062652067726561746560008201527f72207468616e207a65726f000000000000000000000000000000000000000000602082015250565b600062000cba602b8362000bd9565b915062000cc78262000c5c565b604082019050919050565b6000602082019050818103600083015262000ced8162000cab565b9050919050565b7f4d61782062696420616d6f756e74206d7573742062652067726561746572207460008201527f68616e207a65726f000000000000000000000000000000000000000000000000602082015250565b600062000d5260288362000bd9565b915062000d5f8262000cf4565b604082019050919050565b6000602082019050818103600083015262000d858162000d43565b9050919050565b7f41756374696f6e206475726174696f6e206d757374206265206772656174657260008201527f207468616e207a65726f00000000000000000000000000000000000000000000602082015250565b600062000dea602a8362000bd9565b915062000df78262000d8c565b604082019050919050565b6000602082019050818103600083015262000e1d8162000ddb565b9050919050565b7f4e487b7100000000000000000000000000000000000000000000000000000000600052601160045260246000fd5b600062000e60826200077b565b915062000e6d836200077b565b925082820262000e7d816200077b565b9150828204841483151762000e975762000e9662000e24565b5b5092915050565b7f496e73756666696369656e742066756e6473206c6f636b656400000000000000600082015250565b600062000ed660198362000bd9565b915062000ee38262000e9e565b602082019050919050565b6000602082019050818103600083015262000f098162000ec7565b9050919050565b600081519050919050565b60005b8381101562000f3b57808201518184015260208101905062000f1e565b60008484015250505050565b600062000f548262000f10565b62000f60818562000bd9565b935062000f7281856020860162000f1b565b62000f7d81620008cc565b840191505092915050565b62000f93816200077b565b82525050565b600060a08201905062000fb060008301886200081c565b818103602083015262000fc4818762000f47565b905062000fd5604083018662000f88565b62000fe4606083018562000f88565b62000ff3608083018462000f88565b9695505050505050565b600081905092915050565b50565b60006200101a60008362000ffd565b9150620010278262001008565b600082019050919050565b60006200103f826200100b565b9150819050919050565b7f4661696c656420746f206c6f636b2066756e647320696e2061756374696f6e00600082015250565b600062001081601f8362000bd9565b91506200108e8262001049565b602082019050919050565b60006020820190508181036000830152620010b48162001072565b9050919050565b60006060820190508181036000830152620010d7818662000f47565b9050620010e8602083018562000f88565b620010f7604083018462000f88565b94935050505056fe60806040523480156200001157600080fd5b506040516200268938038062002689833981810160405281019062000037919062000333565b84600160006101000a81548173ffffffffffffffffffffffffffffffffffffffff021916908373ffffffffffffffffffffffffffffffffffffffff16021790555083600090816200008991906200061b565b508260028190555081600381905550426004819055508042620000ad919062000731565b6005819055508183620000c191906200076c565b6006819055506000600760006101000a81548160ff02191690836002811115620000f057620000ef620007b7565b5b02179055505050505050620007e6565b6000604051905090565b600080fd5b600080fd5b600073ffffffffffffffffffffffffffffffffffffffff82169050919050565b6000620001418262000114565b9050919050565b620001538162000134565b81146200015f57600080fd5b50565b600081519050620001738162000148565b92915050565b600080fd5b600080fd5b6000601f19601f8301169050919050565b7f4e487b7100000000000000000000000000000000000000000000000000000000600052604160045260246000fd5b620001ce8262000183565b810181811067ffffffffffffffff82111715620001f057620001ef62000194565b5b80604052505050565b60006200020562000100565b9050620002138282620001c3565b919050565b600067ffffffffffffffff82111562000236576200023562000194565b5b620002418262000183565b9050602081019050919050565b60005b838110156200026e57808201518184015260208101905062000251565b60008484015250505050565b6000620002916200028b8462000218565b620001f9565b905082815260208101848484011115620002b057620002af6200017e565b5b620002bd8482856200024e565b509392505050565b600082601f830112620002dd57620002dc62000179565b5b8151620002ef8482602086016200027a565b91505092915050565b6000819050919050565b6200030d81620002f8565b81146200031957600080fd5b50565b6000815190506200032d8162000302565b92915050565b600080600080600060a086880312156200035257620003516200010a565b5b6000620003628882890162000162565b955050602086015167ffffffffffffffff8111156200038657620003856200010f565b5b6200039488828901620002c5565b9450506040620003a7888289016200031c565b9350506060620003ba888289016200031c565b9250506080620003cd888289016200031c565b9150509295509295909350565b600081519050919050565b7f4e487b7100000000000000000000000000000000000000000000000000000000600052602260045260246000fd5b600060028204905060018216806200042d57607f821691505b602082108103620004435762000442620003e5565b5b50919050565b60008190508160005260206000209050919050565b60006020601f8301049050919050565b600082821b905092915050565b600060088302620004ad7fffffffffffffffffffffffffffffffffffffffffffffffffffffffffffffffff826200046e565b620004b986836200046e565b95508019841693508086168417925050509392505050565b6000819050919050565b6000620004fc620004f6620004f084620002f8565b620004d1565b620002f8565b9050919050565b6000819050919050565b6200051883620004db565b62000530620005278262000503565b8484546200047b565b825550505050565b600090565b6200054762000538565b620005548184846200050d565b505050565b5b818110156200057c57620005706000826200053d565b6001810190506200055a565b5050565b601f821115620005cb57620005958162000449565b620005a0846200045e565b81016020851015620005b0578190505b620005c8620005bf856200045e565b83018262000559565b50505b505050565b600082821c905092915050565b6000620005f060001984600802620005d0565b1980831691505092915050565b60006200060b8383620005dd565b9150826002028217905092915050565b6200062682620003da565b67ffffffffffffffff81111562000642576200064162000194565b5b6200064e825462000414565b6200065b82828562000580565b600060209050601f8311600181146200069357600084156200067e578287015190505b6200068a8582620005fd565b865550620006fa565b601f198416620006a38662000449565b60005b82811015620006cd57848901518255600182019150602085019450602081019050620006a6565b86831015620006ed5784890151620006e9601f891682620005dd565b8355505b6001600288020188555050505b505050505050565b7f4e487b7100000000000000000000000000000000000000000000000000000000600052601160045260246000fd5b60006200073e82620002f8565b91506200074b83620002f8565b925082820190508082111562000766576200076562000702565b5b92915050565b60006200077982620002f8565b91506200078683620002f8565b92508282026200079681620002f8565b91508282048414831517620007b057620007af62000702565b5b5092915050565b7f4e487b7100000000000000000000000000000000000000000000000000000000600052602160045260246000fd5b611e9380620007f66000396000f3fe6080604052600436106100f75760003560e01c80638acfaca91161008a578063c63d99db11610059578063c63d99db14610346578063d06da2cb14610371578063e17e9c4914610388578063ef4cec1f146103c7576100fe565b80638acfaca91461028a5780639979ef45146102b55780639d9ca28d146102de578063b8afaa481461031b576100fe565b80634c9981f6116100c65780634c9981f6146101cc57806361e23f4e146101f7578063677f8c141461023457806378e979251461025f576100fe565b80630c3f6acf146101035780633197cbb61461012e5780633a6dcea2146101595780634423c5f11461018d576100fe565b366100fe57005b600080fd5b34801561010f57600080fd5b50610118610404565b604051610125919061150e565b60405180910390f35b34801561013a57600080fd5b50610143610417565b6040516101509190611542565b60405180910390f35b34801561016557600080fd5b5061016e61041d565b6040516101849a9998979695949392919061173d565b60405180910390f35b34801561019957600080fd5b506101b460048036038101906101af919061181f565b6106a7565b6040516101c39392919061184c565b60405180910390f35b3480156101d857600080fd5b506101e1610701565b6040516101ee9190611542565b60405180910390f35b34801561020357600080fd5b5061021e600480360381019061021991906118af565b610707565b60405161022b9190611542565b60405180910390f35b34801561024057600080fd5b5061024961071f565b60405161025691906118dc565b60405180910390f35b34801561026b57600080fd5b50610274610745565b6040516102819190611542565b60405180910390f35b34801561029657600080fd5b5061029f61074b565b6040516102ac9190611542565b60405180910390f35b3480156102c157600080fd5b506102dc60048036038101906102d7919061181f565b610751565b005b3480156102ea57600080fd5b50610305600480360381019061030091906118af565b610b46565b6040516103129190611912565b60405180910390f35b34801561032757600080fd5b50610330610b66565b60405161033d9190611542565b60405180910390f35b34801561035257600080fd5b5061035b610b6c565b604051610368919061192d565b60405180910390f35b34801561037d57600080fd5b50610386610bfa565b005b34801561039457600080fd5b506103af60048036038101906103aa919061181f565b610e19565b6040516103be9392919061184c565b60405180910390f35b3480156103d357600080fd5b506103ee60048036038101906103e991906118af565b610e73565b6040516103fb9190611912565b60405180910390f35b600760009054906101000a900460ff1681565b60055481565b606060008060008060008060006060806000600160009054906101000a900473ffffffffffffffffffffffffffffffffffffffff16600254600354600454600554600654600760009054906101000a900460ff16600b60088980546104819061197e565b80601f01602080910402602001604051908101604052809291908181526020018280546104ad9061197e565b80156104fa5780601f106104cf576101008083540402835291602001916104fa565b820191906000526020600020905b8154815290600101906020018083116104dd57829003601f168201915b5050505050995081805480602002602001604051908101604052809291908181526020016000905b828210156105be57838290600052602060002090600302016040518060600160405290816000820160009054906101000a900473ffffffffffffffffffffffffffffffffffffffff1673ffffffffffffffffffffffffffffffffffffffff1673ffffffffffffffffffffffffffffffffffffffff1681526020016001820154815260200160028201548152505081526020019060010190610522565b50505050915080805480602002602001604051908101604052809291908181526020016000905b8282101561068157838290600052602060002090600302016040518060600160405290816000820160009054906101000a900473ffffffffffffffffffffffffffffffffffffffff1673ffffffffffffffffffffffffffffffffffffffff1673ffffffffffffffffffffffffffffffffffffffff16815260200160018201548152602001600282015481525050815260200190600101906105e5565b505050509050995099509950995099509950995099509950995090919293949596979899565b600881815481106106b757600080fd5b90600052602060002090600302016000915090508060000160009054906101000a900473ffffffffffffffffffffffffffffffffffffffff16908060010154908060020154905083565b60025481565b60096020528060005260406000206000915090505481565b600160009054906101000a900473ffffffffffffffffffffffffffffffffffffffff1681565b60045481565b60035481565b600454421080610762575060055442115b806107a157506000600281111561077c5761077b611497565b5b600760009054906101000a900460ff16600281111561079e5761079d611497565b5b14155b156107d8576040517f69b8d0fe00000000000000000000000000000000000000000000000000000000815260040160405180910390fd5b60025481111561081d576040517f08c379a0000000000000000000000000000000000000000000000000000000008152600401610814906119fb565b60405180910390fd5b600a60003373ffffffffffffffffffffffffffffffffffffffff1673ffffffffffffffffffffffffffffffffffffffff16815260200190815260200160002060009054906101000a900460ff161561098c576000600960003373ffffffffffffffffffffffffffffffffffffffff1673ffffffffffffffffffffffffffffffffffffffff1681526020019081526020016000205490506000600882815481106108c9576108c8611a1b565b5b906000526020600020906003020190508060010154831061091f576040517f08c379a000000000000000000000000000000000000000000000000000000000815260040161091690611abc565b60405180910390fd5b3373ffffffffffffffffffffffffffffffffffffffff167f9e533f91d4ed3abe015e213140fcc387cf310c5fa9c4f5672058fec6f6f7d26a82600101548560405161096b929190611adc565b60405180910390a28281600101819055504281600201819055505050610af3565b600860405180606001604052803373ffffffffffffffffffffffffffffffffffffffff16815260200183815260200142815250908060018154018082558091505060019003906000526020600020906003020160009091909190915060008201518160000160006101000a81548173ffffffffffffffffffffffffffffffffffffffff021916908373ffffffffffffffffffffffffffffffffffffffff160217905550602082015181600101556040820151816002015550506001600880549050610a579190611b34565b600960003373ffffffffffffffffffffffffffffffffffffffff1673ffffffffffffffffffffffffffffffffffffffff168152602001908152602001600020819055506001600a60003373ffffffffffffffffffffffffffffffffffffffff1673ffffffffffffffffffffffffffffffffffffffff16815260200190815260200160002060006101000a81548160ff0219169083151502179055505b3373ffffffffffffffffffffffffffffffffffffffff167fdf8644c0a4c21ed214ce69f395675b3a5fcd1039083daea5058898de40ea31498242604051610b3b929190611adc565b60405180910390a250565b600c6020528060005260406000206000915054906101000a900460ff1681565b60065481565b60008054610b799061197e565b80601f0160208091040260200160405190810160405280929190818152602001828054610ba59061197e565b8015610bf25780601f10610bc757610100808354040283529160200191610bf2565b820191906000526020600020905b815481529060010190602001808311610bd557829003601f168201915b505050505081565b600160009054906101000a900473ffffffffffffffffffffffffffffffffffffffff1673ffffffffffffffffffffffffffffffffffffffff163373ffffffffffffffffffffffffffffffffffffffff1614610c8a576040517f08c379a0000000000000000000000000000000000000000000000000000000008152600401610c8190611bb4565b60405180910390fd5b6005544211610cc5576040517f6463738900000000000000000000000000000000000000000000000000000000815260040160405180910390fd5b6001600760006101000a81548160ff02191690836002811115610ceb57610cea611497565b5b02179055507f266b3118610f5f56a49915fc1813c7f843ceb79da0e906599ef828cad13788b46001604051610d20919061150e565b60405180910390a1600060088054905003610dce576002600760006101000a81548160ff02191690836002811115610d5b57610d5a611497565b5b0217905550600160009054906101000a900473ffffffffffffffffffffffffffffffffffffffff1673ffffffffffffffffffffffffffffffffffffffff166108fc479081150290604051600060405180830381858888f19350505050158015610dc8573d6000803e3d6000fd5b50610e17565b610dd6610e93565b610dde61120a565b7f1cb2c39e36b31bc526f122e768335202ec1fb047bb3309f037c927802d6535c7600b604051610e0e9190611d46565b60405180910390a15b565b600b8181548110610e2957600080fd5b90600052602060002090600302016000915090508060000160009054906101000a900473ffffffffffffffffffffffffffffffffffffffff16908060010154908060020154905083565b600a6020528060005260406000206000915054906101000a900460ff1681565b600060088054905067ffffffffffffffff811115610eb457610eb3611d68565b5b604051908082528060200260200182016040528015610eed57816020015b610eda611460565b815260200190600190039081610ed25790505b50905060005b600880549050811015610fc25760088181548110610f1457610f13611a1b565b5b90600052602060002090600302016040518060600160405290816000820160009054906101000a900473ffffffffffffffffffffffffffffffffffffffff1673ffffffffffffffffffffffffffffffffffffffff1673ffffffffffffffffffffffffffffffffffffffff16815260200160018201548152602001600282015481525050828281518110610faa57610fa9611a1b565b5b60200260200101819052508080600101915050610ef3565b5060006008805490506003541115610fdf57600880549050610fe3565b6003545b905060005b8181101561120557600081905060006001836110049190611d97565b90505b84518110156110655784828151811061102357611022611a1b565b5b60200260200101516020015185828151811061104257611041611a1b565b5b6020026020010151602001511015611058578091505b8080600101915050611007565b50600084838151811061107b5761107a611a1b565b5b6020026020010151905084828151811061109857611097611a1b565b5b60200260200101518584815181106110b3576110b2611a1b565b5b6020026020010181905250808583815181106110d2576110d1611a1b565b5b6020026020010181905250600b8584815181106110f2576110f1611a1b565b5b6020026020010151908060018154018082558091505060019003906000526020600020906003020160009091909190915060008201518160000160006101000a81548173ffffffffffffffffffffffffffffffffffffffff021916908373ffffffffffffffffffffffffffffffffffffffff160217905550602082015181600101556040820151816002015550506001600c600087868151811061119957611198611a1b565b5b60200260200101516000015173ffffffffffffffffffffffffffffffffffffffff1673ffffffffffffffffffffffffffffffffffffffff16815260200190815260200160002060006101000a81548160ff02191690831515021790555050508080600101915050610fe8565b505050565b6001600281111561121e5761121d611497565b5b600760009054906101000a900460ff1660028111156112405761123f611497565b5b14158061125257506000600b80549050145b15611289576040517f94bcc1c200000000000000000000000000000000000000000000000000000000815260040160405180910390fd5b6006544710156112ce576040517f08c379a00000000000000000000000000000000000000000000000000000000081526004016112c590611e3d565b60405180910390fd5b6000600b6001600b805490506112e49190611b34565b815481106112f5576112f4611a1b565b5b906000526020600020906003020160010154905060005b600b805490508110156113b257600b818154811061132d5761132c611a1b565b5b906000526020600020906003020160000160009054906101000a900473ffffffffffffffffffffffffffffffffffffffff1673ffffffffffffffffffffffffffffffffffffffff166108fc839081150290604051600060405180830381858888f193505050501580156113a4573d6000803e3d6000fd5b50808060010191505061130c565b507f8eecd6f35243e1875b7143b093766263953bc97e6e92213e4ae934c67e1fe0de816040516113e29190611542565b60405180910390a1600047111561145d57600160009054906101000a900473ffffffffffffffffffffffffffffffffffffffff1673ffffffffffffffffffffffffffffffffffffffff166108fc479081150290604051600060405180830381858888f1935050505015801561145b573d6000803e3d6000fd5b505b50565b6040518060600160405280600073ffffffffffffffffffffffffffffffffffffffff16815260200160008152602001600081525090565b7f4e487b7100000000000000000000000000000000000000000000000000000000600052602160045260246000fd5b600381106114d7576114d6611497565b5b50565b60008190506114e8826114c6565b919050565b60006114f8826114da565b9050919050565b611508816114ed565b82525050565b600060208201905061152360008301846114ff565b92915050565b6000819050919050565b61153c81611529565b82525050565b60006020820190506115576000830184611533565b92915050565b600081519050919050565b600082825260208201905092915050565b60005b8381101561159757808201518184015260208101905061157c565b60008484015250505050565b6000601f19601f8301169050919050565b60006115bf8261155d565b6115c98185611568565b93506115d9818560208601611579565b6115e2816115a3565b840191505092915050565b600073ffffffffffffffffffffffffffffffffffffffff82169050919050565b6000611618826115ed565b9050919050565b6116288161160d565b82525050565b600081519050919050565b600082825260208201905092915050565b6000819050602082019050919050565b6116638161160d565b82525050565b61167281611529565b82525050565b60608201600082015161168e600085018261165a565b5060208201516116a16020850182611669565b5060408201516116b46040850182611669565b50505050565b60006116c68383611678565b60608301905092915050565b6000602082019050919050565b60006116ea8261162e565b6116f48185611639565b93506116ff8361164a565b8060005b8381101561173057815161171788826116ba565b9750611722836116d2565b925050600181019050611703565b5085935050505092915050565b6000610140820190508181036000830152611758818d6115b4565b9050611767602083018c61161f565b611774604083018b611533565b611781606083018a611533565b61178e6080830189611533565b61179b60a0830188611533565b6117a860c0830187611533565b6117b560e08301866114ff565b8181036101008301526117c881856116df565b90508181036101208301526117dd81846116df565b90509b9a5050505050505050505050565b600080fd5b6117fc81611529565b811461180757600080fd5b50565b600081359050611819816117f3565b92915050565b600060208284031215611835576118346117ee565b5b60006118438482850161180a565b91505092915050565b6000606082019050611861600083018661161f565b61186e6020830185611533565b61187b6040830184611533565b949350505050565b61188c8161160d565b811461189757600080fd5b50565b6000813590506118a981611883565b92915050565b6000602082840312156118c5576118c46117ee565b5b60006118d38482850161189a565b91505092915050565b60006020820190506118f1600083018461161f565b92915050565b60008115159050919050565b61190c816118f7565b82525050565b60006020820190506119276000830184611903565b92915050565b6000602082019050818103600083015261194781846115b4565b905092915050565b7f4e487b7100000000000000000000000000000000000000000000000000000000600052602260045260246000fd5b6000600282049050600182168061199657607f821691505b6020821081036119a9576119a861194f565b5b50919050565b7f4269642065786365656473206d61782062696420616d6f756e74000000000000600082015250565b60006119e5601a83611568565b91506119f0826119af565b602082019050919050565b60006020820190508181036000830152611a14816119d8565b9050919050565b7f4e487b7100000000000000000000000000000000000000000000000000000000600052603260045260246000fd5b7f4e657720626964206d757374206265206c6f776572207468616e20657869737460008201527f696e672062696400000000000000000000000000000000000000000000000000602082015250565b6000611aa6602783611568565b9150611ab182611a4a565b604082019050919050565b60006020820190508181036000830152611ad581611a99565b9050919050565b6000604082019050611af16000830185611533565b611afe6020830184611533565b9392505050565b7f4e487b7100000000000000000000000000000000000000000000000000000000600052601160045260246000fd5b6000611b3f82611529565b9150611b4a83611529565b9250828203905081811115611b6257611b61611b05565b5b92915050565b7f4f6e6c792061756374696f6e2063726561746f7220616c6c6f77656400000000600082015250565b6000611b9e601c83611568565b9150611ba982611b68565b602082019050919050565b60006020820190508181036000830152611bcd81611b91565b9050919050565b600081549050919050565b60008190508160005260206000209050919050565b60008160001c9050919050565b600073ffffffffffffffffffffffffffffffffffffffff82169050919050565b6000611c34611c2f83611bf4565b611c01565b9050919050565b6000819050919050565b6000611c58611c5383611bf4565b611c3b565b9050919050565b606082016000808301549050611c7481611c21565b611c81600086018261165a565b5060018301549050611c9281611c45565b611c9f6020860182611669565b5060028301549050611cb081611c45565b611cbd6040860182611669565b5050505050565b6000611cd08383611c5f565b60608301905092915050565b6000600382019050919050565b6000611cf482611bd4565b611cfe8185611639565b9350611d0983611bdf565b8060005b83811015611d395781611d208882611cc4565b9750611d2b83611cdc565b925050600181019050611d0d565b5085935050505092915050565b60006020820190508181036000830152611d608184611ce9565b905092915050565b7f4e487b7100000000000000000000000000000000000000000000000000000000600052604160045260246000fd5b6000611da282611529565b9150611dad83611529565b9250828201905080821115611dc557611dc4611b05565b5b92915050565b7f496e73756666696369656e742062616c616e636520666f72206469737472696260008201527f7574696f6e000000000000000000000000000000000000000000000000000000602082015250565b6000611e27602583611568565b9150611e3282611dcb565b604082019050919050565b60006020820190508181036000830152611e5681611e1a565b905091905056fea2646970667358221220b503e65d66c67e66be24d1839fcb2ff5f85752df739da68014fb0c4f68a3bc7264736f6c63430008180033a2646970667358221220b74d0b520a49ec414d64d19749367c827fe5224538f614d08ea550191a70b34064736f6c63430008180033",
  "linkReferences": {},
  "deployedLinkReferences": {}
}