{
  "_format": "hh-sol-artifact-1",
  "contractName": "ReverseAuction",
  "sourceName": "contracts/ReverseAuction.sol",
  "abi": [
    {
      "inputs": [
        {
          "internalType": "address",
          "name": "_creator",
          "type": "address"
        },
        {
          "internalType": "string",
          "name": "_name",
          "type": "string"
        },
        {
          "internalType": "uint256",
          "name": "_maxBid",
          "type": "uint256"
        },
        {
          "internalType": "uint256",
          "name": "_numberOfWinners",
          "type": "uint256"
        },
        {
          "internalType": "uint256",
          "name": "_duration",
          "type": "uint256"
        }
      ],
      "stateMutability": "nonpayable",
      "type": "constructor"
    },
    {
      "inputs": [],
      "name": "AuctionNotActive",
      "type": "error"
    },
    {
      "inputs": [],
      "name": "AuctionNotEnded",
      "type": "error"
    },
    {
      "inputs": [],
      "name": "BidAlreadyPlaced",
      "type": "error"
    },
    {
      "inputs": [],
      "name": "InvalidBidAmount",
      "type": "error"
    },
    {
      "inputs": [],
      "name": "NoWinnersToDistribute",
      "type": "error"
    },
    {
      "anonymous": false,
      "inputs": [
        {
          "indexed": false,
          "internalType": "enum ReverseAuction.AuctionState",
          "name": "newState",
          "type": "uint8"
        }
      ],
      "name": "AuctionStateChanged",
      "type": "event"
    },
    {
      "anonymous": false,
      "inputs": [
        {
          "indexed": true,
          "internalType": "address",
          "name": "bidder",
          "type": "address"
        },
        {
          "indexed": false,
          "internalType": "uint256",
          "name": "amount",
          "type": "uint256"
        },
        {
          "indexed": false,
          "internalType": "uint256",
          "name": "timestamp",
          "type": "uint256"
        }
      ],
      "name": "BidPlaced",
      "type": "event"
    },
    {
      "anonymous": false,
      "inputs": [
        {
          "indexed": true,
          "internalType": "address",
          "name": "bidder",
          "type": "address"
        },
        {
          "indexed": false,
          "internalType": "uint256",
          "name": "oldAmount",
          "type": "uint256"
        },
        {
          "indexed": false,
          "internalType": "uint256",
          "name": "newAmount",
          "type": "uint256"
        }
      ],
      "name": "BidUpdated",
      "type": "event"
    },
    {
      "anonymous": false,
      "inputs": [
        {
          "indexed": false,
          "internalType": "uint256",
          "name": "rewardPerWinner",
          "type": "uint256"
        }
      ],
      "name": "FundsDistributed",
      "type": "event"
    },
    {
      "anonymous": false,
      "inputs": [
        {
          "components": [
            {
              "internalType": "address",
              "name": "bidder",
              "type": "address"
            },
            {
              "internalType": "uint256",
              "name": "amount",
              "type": "uint256"
            },
            {
              "internalType": "uint256",
              "name": "timestamp",
              "type": "uint256"
            }
          ],
          "indexed": false,
          "internalType": "struct ReverseAuction.Bid[]",
          "name": "winners",
          "type": "tuple[]"
        }
      ],
      "name": "WinnersDeclared",
      "type": "event"
    },
    {
      "inputs": [],
      "name": "auctionCreator",
      "outputs": [
        {
          "internalType": "address",
          "name": "",
          "type": "address"
        }
      ],
      "stateMutability": "view",
      "type": "function"
    },
    {
      "inputs": [],
      "name": "auctionName",
      "outputs": [
        {
          "internalType": "string",
          "name": "",
          "type": "string"
        }
      ],
      "stateMutability": "view",
      "type": "function"
    },
    {
      "inputs": [
        {
          "internalType": "address",
          "name": "",
          "type": "address"
        }
      ],
      "name": "bidderToIndex",
      "outputs": [
        {
          "internalType": "uint256",
          "name": "",
          "type": "uint256"
        }
      ],
      "stateMutability": "view",
      "type": "function"
    },
    {
      "inputs": [
        {
          "internalType": "uint256",
          "name": "",
          "type": "uint256"
        }
      ],
      "name": "bids",
      "outputs": [
        {
          "internalType": "address",
          "name": "bidder",
          "type": "address"
        },
        {
          "internalType": "uint256",
          "name": "amount",
          "type": "uint256"
        },
        {
          "internalType": "uint256",
          "name": "timestamp",
          "type": "uint256"
        }
      ],
      "stateMutability": "view",
      "type": "function"
    },
    {
      "inputs": [],
      "name": "currentState",
      "outputs": [
        {
          "internalType": "enum ReverseAuction.AuctionState",
          "name": "",
          "type": "uint8"
        }
      ],
      "stateMutability": "view",
      "type": "function"
    },
    {
      "inputs": [],
      "name": "declareWinners",
      "outputs": [],
      "stateMutability": "nonpayable",
      "type": "function"
    },
    {
      "inputs": [],
      "name": "endTime",
      "outputs": [
        {
          "internalType": "uint256",
          "name": "",
          "type": "uint256"
        }
      ],
      "stateMutability": "view",
      "type": "function"
    },
    {
      "inputs": [],
      "name": "getAuctionDetails",
      "outputs": [
        {
          "internalType": "string",
          "name": "name",
          "type": "string"
        },
        {
          "internalType": "address",
          "name": "creator",
          "type": "address"
        },
        {
          "internalType": "uint256",
          "name": "maxBid",
          "type": "uint256"
        },
        {
          "internalType": "uint256",
          "name": "winnersCount",
          "type": "uint256"
        },
        {
          "internalType": "uint256",
          "name": "auctionStartTime",
          "type": "uint256"
        },
        {
          "internalType": "uint256",
          "name": "auctionEndTime",
          "type": "uint256"
        },
        {
          "internalType": "uint256",
          "name": "auctionLockedFunds",
          "type": "uint256"
        },
        {
          "internalType": "enum ReverseAuction.AuctionState",
          "name": "auctionCurrentState",
          "type": "uint8"
        },
        {
          "components": [
            {
              "internalType": "address",
              "name": "bidder",
              "type": "address"
            },
            {
              "internalType": "uint256",
              "name": "amount",
              "type": "uint256"
            },
            {
              "internalType": "uint256",
              "name": "timestamp",
              "type": "uint256"
            }
          ],
          "internalType": "struct ReverseAuction.Bid[]",
          "name": "winners",
          "type": "tuple[]"
        },
        {
          "components": [
            {
              "internalType": "address",
              "name": "bidder",
              "type": "address"
            },
            {
              "internalType": "uint256",
              "name": "amount",
              "type": "uint256"
            },
            {
              "internalType": "uint256",
              "name": "timestamp",
              "type": "uint256"
            }
          ],
          "internalType": "struct ReverseAuction.Bid[]",
          "name": "allBids",
          "type": "tuple[]"
        }
      ],
      "stateMutability": "view",
      "type": "function"
    },
    {
      "inputs": [
        {
          "internalType": "address",
          "name": "",
          "type": "address"
        }
      ],
      "name": "hasBidded",
      "outputs": [
        {
          "internalType": "bool",
          "name": "",
          "type": "bool"
        }
      ],
      "stateMutability": "view",
      "type": "function"
    },
    {
      "inputs": [
        {
          "internalType": "address",
          "name": "",
          "type": "address"
        }
      ],
      "name": "isWinner",
      "outputs": [
        {
          "internalType": "bool",
          "name": "",
          "type": "bool"
        }
      ],
      "stateMutability": "view",
      "type": "function"
    },
    {
      "inputs": [],
      "name": "lockedFunds",
      "outputs": [
        {
          "internalType": "uint256",
          "name": "",
          "type": "uint256"
        }
      ],
      "stateMutability": "view",
      "type": "function"
    },
    {
      "inputs": [],
      "name": "maxBidAmount",
      "outputs": [
        {
          "internalType": "uint256",
          "name": "",
          "type": "uint256"
        }
      ],
      "stateMutability": "view",
      "type": "function"
    },
    {
      "inputs": [],
      "name": "numberOfWinners",
      "outputs": [
        {
          "internalType": "uint256",
          "name": "",
          "type": "uint256"
        }
      ],
      "stateMutability": "view",
      "type": "function"
    },
    {
      "inputs": [
        {
          "internalType": "uint256",
          "name": "bidAmount",
          "type": "uint256"
        }
      ],
      "name": "placeBid",
      "outputs": [],
      "stateMutability": "nonpayable",
      "type": "function"
    },
    {
      "inputs": [],
      "name": "startTime",
      "outputs": [
        {
          "internalType": "uint256",
          "name": "",
          "type": "uint256"
        }
      ],
      "stateMutability": "view",
      "type": "function"
    },
    {
      "inputs": [
        {
          "internalType": "uint256",
          "name": "",
          "type": "uint256"
        }
      ],
      "name": "winningBids",
      "outputs": [
        {
          "internalType": "address",
          "name": "bidder",
          "type": "address"
        },
        {
          "internalType": "uint256",
          "name": "amount",
          "type": "uint256"
        },
        {
          "internalType": "uint256",
          "name": "timestamp",
          "type": "uint256"
        }
      ],
      "stateMutability": "view",
      "type": "function"
    },
    {
      "stateMutability": "payable",
      "type": "receive"
    }
  ],
  "bytecode": "0x60806040523480156200001157600080fd5b506040516200264e3803806200264e833981810160405281019062000037919062000333565b84600160006101000a81548173ffffffffffffffffffffffffffffffffffffffff021916908373ffffffffffffffffffffffffffffffffffffffff16021790555083600090816200008991906200061b565b508260028190555081600381905550426004819055508042620000ad919062000731565b6005819055508183620000c191906200076c565b6006819055506000600760006101000a81548160ff02191690836002811115620000f057620000ef620007b7565b5b02179055505050505050620007e6565b6000604051905090565b600080fd5b600080fd5b600073ffffffffffffffffffffffffffffffffffffffff82169050919050565b6000620001418262000114565b9050919050565b620001538162000134565b81146200015f57600080fd5b50565b600081519050620001738162000148565b92915050565b600080fd5b600080fd5b6000601f19601f8301169050919050565b7f4e487b7100000000000000000000000000000000000000000000000000000000600052604160045260246000fd5b620001ce8262000183565b810181811067ffffffffffffffff82111715620001f057620001ef62000194565b5b80604052505050565b60006200020562000100565b9050620002138282620001c3565b919050565b600067ffffffffffffffff82111562000236576200023562000194565b5b620002418262000183565b9050602081019050919050565b60005b838110156200026e57808201518184015260208101905062000251565b60008484015250505050565b6000620002916200028b8462000218565b620001f9565b905082815260208101848484011115620002b057620002af6200017e565b5b620002bd8482856200024e565b509392505050565b600082601f830112620002dd57620002dc62000179565b5b8151620002ef8482602086016200027a565b91505092915050565b6000819050919050565b6200030d81620002f8565b81146200031957600080fd5b50565b6000815190506200032d8162000302565b92915050565b600080600080600060a086880312156200035257620003516200010a565b5b6000620003628882890162000162565b955050602086015167ffffffffffffffff8111156200038657620003856200010f565b5b6200039488828901620002c5565b9450506040620003a7888289016200031c565b9350506060620003ba888289016200031c565b9250506080620003cd888289016200031c565b9150509295509295909350565b600081519050919050565b7f4e487b7100000000000000000000000000000000000000000000000000000000600052602260045260246000fd5b600060028204905060018216806200042d57607f821691505b602082108103620004435762000442620003e5565b5b50919050565b60008190508160005260206000209050919050565b60006020601f8301049050919050565b600082821b905092915050565b600060088302620004ad7fffffffffffffffffffffffffffffffffffffffffffffffffffffffffffffffff826200046e565b620004b986836200046e565b95508019841693508086168417925050509392505050565b6000819050919050565b6000620004fc620004f6620004f084620002f8565b620004d1565b620002f8565b9050919050565b6000819050919050565b6200051883620004db565b62000530620005278262000503565b8484546200047b565b825550505050565b600090565b6200054762000538565b620005548184846200050d565b505050565b5b818110156200057c57620005706000826200053d565b6001810190506200055a565b5050565b601f821115620005cb57620005958162000449565b620005a0846200045e565b81016020851015620005b0578190505b620005c8620005bf856200045e565b83018262000559565b50505b505050565b600082821c905092915050565b6000620005f060001984600802620005d0565b1980831691505092915050565b60006200060b8383620005dd565b9150826002028217905092915050565b6200062682620003da565b67ffffffffffffffff81111562000642576200064162000194565b5b6200064e825462000414565b6200065b82828562000580565b600060209050601f8311600181146200069357600084156200067e578287015190505b6200068a8582620005fd565b865550620006fa565b601f198416620006a38662000449565b60005b82811015620006cd57848901518255600182019150602085019450602081019050620006a6565b86831015620006ed5784890151620006e9601f891682620005dd565b8355505b6001600288020188555050505b505050505050565b7f4e487b7100000000000000000000000000000000000000000000000000000000600052601160045260246000fd5b60006200073e82620002f8565b91506200074b83620002f8565b925082820190508082111562000766576200076562000702565b5b92915050565b60006200077982620002f8565b91506200078683620002f8565b92508282026200079681620002f8565b91508282048414831517620007b057620007af62000702565b5b5092915050565b7f4e487b7100000000000000000000000000000000000000000000000000000000600052602160045260246000fd5b611e5880620007f66000396000f3fe6080604052600436106100f75760003560e01c80638acfaca91161008a578063c63d99db11610059578063c63d99db14610346578063d06da2cb14610371578063e17e9c4914610388578063ef4cec1f146103c7576100fe565b80638acfaca91461028a5780639979ef45146102b55780639d9ca28d146102de578063b8afaa481461031b576100fe565b80634c9981f6116100c65780634c9981f6146101cc57806361e23f4e146101f7578063677f8c141461023457806378e979251461025f576100fe565b80630c3f6acf146101035780633197cbb61461012e5780633a6dcea2146101595780634423c5f11461018d576100fe565b366100fe57005b600080fd5b34801561010f57600080fd5b50610118610404565b60405161012591906114d3565b60405180910390f35b34801561013a57600080fd5b50610143610417565b6040516101509190611507565b60405180910390f35b34801561016557600080fd5b5061016e61041d565b6040516101849a99989796959493929190611702565b60405180910390f35b34801561019957600080fd5b506101b460048036038101906101af91906117e4565b6106a7565b6040516101c393929190611811565b60405180910390f35b3480156101d857600080fd5b506101e1610701565b6040516101ee9190611507565b60405180910390f35b34801561020357600080fd5b5061021e60048036038101906102199190611874565b610707565b60405161022b9190611507565b60405180910390f35b34801561024057600080fd5b5061024961071f565b60405161025691906118a1565b60405180910390f35b34801561026b57600080fd5b50610274610745565b6040516102819190611507565b60405180910390f35b34801561029657600080fd5b5061029f61074b565b6040516102ac9190611507565b60405180910390f35b3480156102c157600080fd5b506102dc60048036038101906102d791906117e4565b610751565b005b3480156102ea57600080fd5b5061030560048036038101906103009190611874565b610b46565b60405161031291906118d7565b60405180910390f35b34801561032757600080fd5b50610330610b66565b60405161033d9190611507565b60405180910390f35b34801561035257600080fd5b5061035b610b6c565b60405161036891906118f2565b60405180910390f35b34801561037d57600080fd5b50610386610bfa565b005b34801561039457600080fd5b506103af60048036038101906103aa91906117e4565b610dde565b6040516103be93929190611811565b60405180910390f35b3480156103d357600080fd5b506103ee60048036038101906103e99190611874565b610e38565b6040516103fb91906118d7565b60405180910390f35b600760009054906101000a900460ff1681565b60055481565b606060008060008060008060006060806000600160009054906101000a900473ffffffffffffffffffffffffffffffffffffffff16600254600354600454600554600654600760009054906101000a900460ff16600b600889805461048190611943565b80601f01602080910402602001604051908101604052809291908181526020018280546104ad90611943565b80156104fa5780601f106104cf576101008083540402835291602001916104fa565b820191906000526020600020905b8154815290600101906020018083116104dd57829003601f168201915b5050505050995081805480602002602001604051908101604052809291908181526020016000905b828210156105be57838290600052602060002090600302016040518060600160405290816000820160009054906101000a900473ffffffffffffffffffffffffffffffffffffffff1673ffffffffffffffffffffffffffffffffffffffff1673ffffffffffffffffffffffffffffffffffffffff1681526020016001820154815260200160028201548152505081526020019060010190610522565b50505050915080805480602002602001604051908101604052809291908181526020016000905b8282101561068157838290600052602060002090600302016040518060600160405290816000820160009054906101000a900473ffffffffffffffffffffffffffffffffffffffff1673ffffffffffffffffffffffffffffffffffffffff1673ffffffffffffffffffffffffffffffffffffffff16815260200160018201548152602001600282015481525050815260200190600101906105e5565b505050509050995099509950995099509950995099509950995090919293949596979899565b600881815481106106b757600080fd5b90600052602060002090600302016000915090508060000160009054906101000a900473ffffffffffffffffffffffffffffffffffffffff16908060010154908060020154905083565b60025481565b60096020528060005260406000206000915090505481565b600160009054906101000a900473ffffffffffffffffffffffffffffffffffffffff1681565b60045481565b60035481565b600454421080610762575060055442115b806107a157506000600281111561077c5761077b61145c565b5b600760009054906101000a900460ff16600281111561079e5761079d61145c565b5b14155b156107d8576040517f69b8d0fe00000000000000000000000000000000000000000000000000000000815260040160405180910390fd5b60025481111561081d576040517f08c379a0000000000000000000000000000000000000000000000000000000008152600401610814906119c0565b60405180910390fd5b600a60003373ffffffffffffffffffffffffffffffffffffffff1673ffffffffffffffffffffffffffffffffffffffff16815260200190815260200160002060009054906101000a900460ff161561098c576000600960003373ffffffffffffffffffffffffffffffffffffffff1673ffffffffffffffffffffffffffffffffffffffff1681526020019081526020016000205490506000600882815481106108c9576108c86119e0565b5b906000526020600020906003020190508060010154831061091f576040517f08c379a000000000000000000000000000000000000000000000000000000000815260040161091690611a81565b60405180910390fd5b3373ffffffffffffffffffffffffffffffffffffffff167f9e533f91d4ed3abe015e213140fcc387cf310c5fa9c4f5672058fec6f6f7d26a82600101548560405161096b929190611aa1565b60405180910390a28281600101819055504281600201819055505050610af3565b600860405180606001604052803373ffffffffffffffffffffffffffffffffffffffff16815260200183815260200142815250908060018154018082558091505060019003906000526020600020906003020160009091909190915060008201518160000160006101000a81548173ffffffffffffffffffffffffffffffffffffffff021916908373ffffffffffffffffffffffffffffffffffffffff160217905550602082015181600101556040820151816002015550506001600880549050610a579190611af9565b600960003373ffffffffffffffffffffffffffffffffffffffff1673ffffffffffffffffffffffffffffffffffffffff168152602001908152602001600020819055506001600a60003373ffffffffffffffffffffffffffffffffffffffff1673ffffffffffffffffffffffffffffffffffffffff16815260200190815260200160002060006101000a81548160ff0219169083151502179055505b3373ffffffffffffffffffffffffffffffffffffffff167fdf8644c0a4c21ed214ce69f395675b3a5fcd1039083daea5058898de40ea31498242604051610b3b929190611aa1565b60405180910390a250565b600c6020528060005260406000206000915054906101000a900460ff1681565b60065481565b60008054610b7990611943565b80601f0160208091040260200160405190810160405280929190818152602001828054610ba590611943565b8015610bf25780601f10610bc757610100808354040283529160200191610bf2565b820191906000526020600020905b815481529060010190602001808311610bd557829003601f168201915b505050505081565b600160009054906101000a900473ffffffffffffffffffffffffffffffffffffffff1673ffffffffffffffffffffffffffffffffffffffff163373ffffffffffffffffffffffffffffffffffffffff1614610c8a576040517f08c379a0000000000000000000000000000000000000000000000000000000008152600401610c8190611b79565b60405180910390fd5b6001600760006101000a81548160ff02191690836002811115610cb057610caf61145c565b5b02179055507f266b3118610f5f56a49915fc1813c7f843ceb79da0e906599ef828cad13788b46001604051610ce591906114d3565b60405180910390a1600060088054905003610d93576002600760006101000a81548160ff02191690836002811115610d2057610d1f61145c565b5b0217905550600160009054906101000a900473ffffffffffffffffffffffffffffffffffffffff1673ffffffffffffffffffffffffffffffffffffffff166108fc479081150290604051600060405180830381858888f19350505050158015610d8d573d6000803e3d6000fd5b50610ddc565b610d9b610e58565b610da36111cf565b7f1cb2c39e36b31bc526f122e768335202ec1fb047bb3309f037c927802d6535c7600b604051610dd39190611d0b565b60405180910390a15b565b600b8181548110610dee57600080fd5b90600052602060002090600302016000915090508060000160009054906101000a900473ffffffffffffffffffffffffffffffffffffffff16908060010154908060020154905083565b600a6020528060005260406000206000915054906101000a900460ff1681565b600060088054905067ffffffffffffffff811115610e7957610e78611d2d565b5b604051908082528060200260200182016040528015610eb257816020015b610e9f611425565b815260200190600190039081610e975790505b50905060005b600880549050811015610f875760088181548110610ed957610ed86119e0565b5b90600052602060002090600302016040518060600160405290816000820160009054906101000a900473ffffffffffffffffffffffffffffffffffffffff1673ffffffffffffffffffffffffffffffffffffffff1673ffffffffffffffffffffffffffffffffffffffff16815260200160018201548152602001600282015481525050828281518110610f6f57610f6e6119e0565b5b60200260200101819052508080600101915050610eb8565b5060006008805490506003541115610fa457600880549050610fa8565b6003545b905060005b818110156111ca5760008190506000600183610fc99190611d5c565b90505b845181101561102a57848281518110610fe857610fe76119e0565b5b602002602001015160200151858281518110611007576110066119e0565b5b602002602001015160200151101561101d578091505b8080600101915050610fcc565b5060008483815181106110405761103f6119e0565b5b6020026020010151905084828151811061105d5761105c6119e0565b5b6020026020010151858481518110611078576110776119e0565b5b602002602001018190525080858381518110611097576110966119e0565b5b6020026020010181905250600b8584815181106110b7576110b66119e0565b5b6020026020010151908060018154018082558091505060019003906000526020600020906003020160009091909190915060008201518160000160006101000a81548173ffffffffffffffffffffffffffffffffffffffff021916908373ffffffffffffffffffffffffffffffffffffffff160217905550602082015181600101556040820151816002015550506001600c600087868151811061115e5761115d6119e0565b5b60200260200101516000015173ffffffffffffffffffffffffffffffffffffffff1673ffffffffffffffffffffffffffffffffffffffff16815260200190815260200160002060006101000a81548160ff02191690831515021790555050508080600101915050610fad565b505050565b600160028111156111e3576111e261145c565b5b600760009054906101000a900460ff1660028111156112055761120461145c565b5b14158061121757506000600b80549050145b1561124e576040517f94bcc1c200000000000000000000000000000000000000000000000000000000815260040160405180910390fd5b600654471015611293576040517f08c379a000000000000000000000000000000000000000000000000000000000815260040161128a90611e02565b60405180910390fd5b6000600b6001600b805490506112a99190611af9565b815481106112ba576112b96119e0565b5b906000526020600020906003020160010154905060005b600b8054905081101561137757600b81815481106112f2576112f16119e0565b5b906000526020600020906003020160000160009054906101000a900473ffffffffffffffffffffffffffffffffffffffff1673ffffffffffffffffffffffffffffffffffffffff166108fc839081150290604051600060405180830381858888f19350505050158015611369573d6000803e3d6000fd5b5080806001019150506112d1565b507f8eecd6f35243e1875b7143b093766263953bc97e6e92213e4ae934c67e1fe0de816040516113a79190611507565b60405180910390a1600047111561142257600160009054906101000a900473ffffffffffffffffffffffffffffffffffffffff1673ffffffffffffffffffffffffffffffffffffffff166108fc479081150290604051600060405180830381858888f19350505050158015611420573d6000803e3d6000fd5b505b50565b6040518060600160405280600073ffffffffffffffffffffffffffffffffffffffff16815260200160008152602001600081525090565b7f4e487b7100000000000000000000000000000000000000000000000000000000600052602160045260246000fd5b6003811061149c5761149b61145c565b5b50565b60008190506114ad8261148b565b919050565b60006114bd8261149f565b9050919050565b6114cd816114b2565b82525050565b60006020820190506114e860008301846114c4565b92915050565b6000819050919050565b611501816114ee565b82525050565b600060208201905061151c60008301846114f8565b92915050565b600081519050919050565b600082825260208201905092915050565b60005b8381101561155c578082015181840152602081019050611541565b60008484015250505050565b6000601f19601f8301169050919050565b600061158482611522565b61158e818561152d565b935061159e81856020860161153e565b6115a781611568565b840191505092915050565b600073ffffffffffffffffffffffffffffffffffffffff82169050919050565b60006115dd826115b2565b9050919050565b6115ed816115d2565b82525050565b600081519050919050565b600082825260208201905092915050565b6000819050602082019050919050565b611628816115d2565b82525050565b611637816114ee565b82525050565b606082016000820151611653600085018261161f565b506020820151611666602085018261162e565b506040820151611679604085018261162e565b50505050565b600061168b838361163d565b60608301905092915050565b6000602082019050919050565b60006116af826115f3565b6116b981856115fe565b93506116c48361160f565b8060005b838110156116f55781516116dc888261167f565b97506116e783611697565b9250506001810190506116c8565b5085935050505092915050565b600061014082019050818103600083015261171d818d611579565b905061172c602083018c6115e4565b611739604083018b6114f8565b611746606083018a6114f8565b61175360808301896114f8565b61176060a08301886114f8565b61176d60c08301876114f8565b61177a60e08301866114c4565b81810361010083015261178d81856116a4565b90508181036101208301526117a281846116a4565b90509b9a5050505050505050505050565b600080fd5b6117c1816114ee565b81146117cc57600080fd5b50565b6000813590506117de816117b8565b92915050565b6000602082840312156117fa576117f96117b3565b5b6000611808848285016117cf565b91505092915050565b600060608201905061182660008301866115e4565b61183360208301856114f8565b61184060408301846114f8565b949350505050565b611851816115d2565b811461185c57600080fd5b50565b60008135905061186e81611848565b92915050565b60006020828403121561188a576118896117b3565b5b60006118988482850161185f565b91505092915050565b60006020820190506118b660008301846115e4565b92915050565b60008115159050919050565b6118d1816118bc565b82525050565b60006020820190506118ec60008301846118c8565b92915050565b6000602082019050818103600083015261190c8184611579565b905092915050565b7f4e487b7100000000000000000000000000000000000000000000000000000000600052602260045260246000fd5b6000600282049050600182168061195b57607f821691505b60208210810361196e5761196d611914565b5b50919050565b7f4269642065786365656473206d61782062696420616d6f756e74000000000000600082015250565b60006119aa601a8361152d565b91506119b582611974565b602082019050919050565b600060208201905081810360008301526119d98161199d565b9050919050565b7f4e487b7100000000000000000000000000000000000000000000000000000000600052603260045260246000fd5b7f4e657720626964206d757374206265206c6f776572207468616e20657869737460008201527f696e672062696400000000000000000000000000000000000000000000000000602082015250565b6000611a6b60278361152d565b9150611a7682611a0f565b604082019050919050565b60006020820190508181036000830152611a9a81611a5e565b9050919050565b6000604082019050611ab660008301856114f8565b611ac360208301846114f8565b9392505050565b7f4e487b7100000000000000000000000000000000000000000000000000000000600052601160045260246000fd5b6000611b04826114ee565b9150611b0f836114ee565b9250828203905081811115611b2757611b26611aca565b5b92915050565b7f4f6e6c792061756374696f6e2063726561746f7220616c6c6f77656400000000600082015250565b6000611b63601c8361152d565b9150611b6e82611b2d565b602082019050919050565b60006020820190508181036000830152611b9281611b56565b9050919050565b600081549050919050565b60008190508160005260206000209050919050565b60008160001c9050919050565b600073ffffffffffffffffffffffffffffffffffffffff82169050919050565b6000611bf9611bf483611bb9565b611bc6565b9050919050565b6000819050919050565b6000611c1d611c1883611bb9565b611c00565b9050919050565b606082016000808301549050611c3981611be6565b611c46600086018261161f565b5060018301549050611c5781611c0a565b611c64602086018261162e565b5060028301549050611c7581611c0a565b611c82604086018261162e565b5050505050565b6000611c958383611c24565b60608301905092915050565b6000600382019050919050565b6000611cb982611b99565b611cc381856115fe565b9350611cce83611ba4565b8060005b83811015611cfe5781611ce58882611c89565b9750611cf083611ca1565b925050600181019050611cd2565b5085935050505092915050565b60006020820190508181036000830152611d258184611cae565b905092915050565b7f4e487b7100000000000000000000000000000000000000000000000000000000600052604160045260246000fd5b6000611d67826114ee565b9150611d72836114ee565b9250828201905080821115611d8a57611d89611aca565b5b92915050565b7f496e73756666696369656e742062616c616e636520666f72206469737472696260008201527f7574696f6e000000000000000000000000000000000000000000000000000000602082015250565b6000611dec60258361152d565b9150611df782611d90565b604082019050919050565b60006020820190508181036000830152611e1b81611ddf565b905091905056fea2646970667358221220e59f3da7ab58b3eef809bf712a508d579c7cbab5e35b3d3f089d2e302ba0ee7e64736f6c63430008180033",
  "linkReferences": {},
  "deployedLinkReferences": {}
}